{
  "_format": "hh-sol-artifact-1",
  "contractName": "HackathonTeam",
  "sourceName": "contracts/RegisterHackathon.sol",
  "abi": [
    {
      "inputs": [],
      "stateMutability": "nonpayable",
      "type": "constructor"
    },
    {
      "anonymous": false,
      "inputs": [
        {
          "indexed": true,
          "internalType": "address",
          "name": "account",
          "type": "address"
        },
        {
          "indexed": true,
          "internalType": "address",
          "name": "operator",
          "type": "address"
        },
        {
          "indexed": false,
          "internalType": "bool",
          "name": "approved",
          "type": "bool"
        }
      ],
      "name": "ApprovalForAll",
      "type": "event"
    },
    {
      "anonymous": false,
      "inputs": [
        {
          "indexed": true,
          "internalType": "address",
          "name": "operator",
          "type": "address"
        },
        {
          "indexed": true,
          "internalType": "address",
          "name": "from",
          "type": "address"
        },
        {
          "indexed": true,
          "internalType": "address",
          "name": "to",
          "type": "address"
        },
        {
          "indexed": false,
          "internalType": "uint256[]",
          "name": "ids",
          "type": "uint256[]"
        },
        {
          "indexed": false,
          "internalType": "uint256[]",
          "name": "values",
          "type": "uint256[]"
        }
      ],
      "name": "TransferBatch",
      "type": "event"
    },
    {
      "anonymous": false,
      "inputs": [
        {
          "indexed": true,
          "internalType": "address",
          "name": "operator",
          "type": "address"
        },
        {
          "indexed": true,
          "internalType": "address",
          "name": "from",
          "type": "address"
        },
        {
          "indexed": true,
          "internalType": "address",
          "name": "to",
          "type": "address"
        },
        {
          "indexed": false,
          "internalType": "uint256",
          "name": "id",
          "type": "uint256"
        },
        {
          "indexed": false,
          "internalType": "uint256",
          "name": "value",
          "type": "uint256"
        }
      ],
      "name": "TransferSingle",
      "type": "event"
    },
    {
      "anonymous": false,
      "inputs": [
        {
          "indexed": false,
          "internalType": "string",
          "name": "value",
          "type": "string"
        },
        {
          "indexed": true,
          "internalType": "uint256",
          "name": "id",
          "type": "uint256"
        }
      ],
      "name": "URI",
      "type": "event"
    },
    {
      "inputs": [],
      "name": "airlineCount",
      "outputs": [
        {
          "internalType": "uint256",
          "name": "",
          "type": "uint256"
        }
      ],
      "stateMutability": "view",
      "type": "function"
    },
    {
      "inputs": [
        {
          "internalType": "address",
          "name": "account",
          "type": "address"
        },
        {
          "internalType": "uint256",
          "name": "id",
          "type": "uint256"
        }
      ],
      "name": "balanceOf",
      "outputs": [
        {
          "internalType": "uint256",
          "name": "",
          "type": "uint256"
        }
      ],
      "stateMutability": "view",
      "type": "function"
    },
    {
      "inputs": [
        {
          "internalType": "address[]",
          "name": "accounts",
          "type": "address[]"
        },
        {
          "internalType": "uint256[]",
          "name": "ids",
          "type": "uint256[]"
        }
      ],
      "name": "balanceOfBatch",
      "outputs": [
        {
          "internalType": "uint256[]",
          "name": "",
          "type": "uint256[]"
        }
      ],
      "stateMutability": "view",
      "type": "function"
    },
    {
      "inputs": [],
      "name": "baseUri",
      "outputs": [
        {
          "internalType": "string",
          "name": "",
          "type": "string"
        }
      ],
      "stateMutability": "view",
      "type": "function"
    },
    {
      "inputs": [
        {
          "internalType": "address",
          "name": "account",
          "type": "address"
        },
        {
          "internalType": "address",
          "name": "operator",
          "type": "address"
        }
      ],
      "name": "isApprovedForAll",
      "outputs": [
        {
          "internalType": "bool",
          "name": "",
          "type": "bool"
        }
      ],
      "stateMutability": "view",
      "type": "function"
    },
    {
      "inputs": [
        {
          "internalType": "uint8",
          "name": "tokenId",
          "type": "uint8"
        }
      ],
      "name": "isHold",
      "outputs": [
        {
          "internalType": "bool",
          "name": "",
          "type": "bool"
        }
      ],
      "stateMutability": "view",
      "type": "function"
    },
    {
      "inputs": [
        {
          "internalType": "uint8",
          "name": "tokenId",
          "type": "uint8"
        }
      ],
      "name": "mint",
      "outputs": [],
      "stateMutability": "nonpayable",
      "type": "function"
    },
    {
      "inputs": [
        {
          "internalType": "address",
          "name": "from",
          "type": "address"
        },
        {
          "internalType": "address",
          "name": "to",
          "type": "address"
        },
        {
          "internalType": "uint256[]",
          "name": "ids",
          "type": "uint256[]"
        },
        {
          "internalType": "uint256[]",
          "name": "amounts",
          "type": "uint256[]"
        },
        {
          "internalType": "bytes",
          "name": "data",
          "type": "bytes"
        }
      ],
      "name": "safeBatchTransferFrom",
      "outputs": [],
      "stateMutability": "nonpayable",
      "type": "function"
    },
    {
      "inputs": [
        {
          "internalType": "address",
          "name": "from",
          "type": "address"
        },
        {
          "internalType": "address",
          "name": "to",
          "type": "address"
        },
        {
          "internalType": "uint256",
          "name": "id",
          "type": "uint256"
        },
        {
          "internalType": "uint256",
          "name": "amount",
          "type": "uint256"
        },
        {
          "internalType": "bytes",
          "name": "data",
          "type": "bytes"
        }
      ],
      "name": "safeTransferFrom",
      "outputs": [],
      "stateMutability": "nonpayable",
      "type": "function"
    },
    {
      "inputs": [
        {
          "internalType": "address",
          "name": "operator",
          "type": "address"
        },
        {
          "internalType": "bool",
          "name": "approved",
          "type": "bool"
        }
      ],
      "name": "setApprovalForAll",
      "outputs": [],
      "stateMutability": "nonpayable",
      "type": "function"
    },
    {
      "inputs": [
        {
          "internalType": "bytes4",
          "name": "interfaceId",
          "type": "bytes4"
        }
      ],
      "name": "supportsInterface",
      "outputs": [
        {
          "internalType": "bool",
          "name": "",
          "type": "bool"
        }
      ],
      "stateMutability": "view",
      "type": "function"
    },
    {
      "inputs": [
        {
          "internalType": "uint256",
          "name": "",
          "type": "uint256"
        }
      ],
      "name": "uri",
      "outputs": [
        {
          "internalType": "string",
          "name": "",
          "type": "string"
        }
      ],
      "stateMutability": "view",
      "type": "function"
    }
  ],
  "bytecode": "0x60806040523480156200001157600080fd5b506040518060200160405280600081525062000033816200004260201b60201c565b50600060038190555062000173565b80600290805190602001906200005a9291906200005e565b5050565b8280546200006c906200013d565b90600052602060002090601f016020900481019282620000905760008555620000dc565b82601f10620000ab57805160ff1916838001178555620000dc565b82800160010185558215620000dc579182015b82811115620000db578251825591602001919060010190620000be565b5b509050620000eb9190620000ef565b5090565b5b808211156200010a576000816000905550600101620000f0565b5090565b7f4e487b7100000000000000000000000000000000000000000000000000000000600052602260045260246000fd5b600060028204905060018216806200015657607f821691505b602082108114156200016d576200016c6200010e565b5b50919050565b612a6f80620001836000396000f3fe608060405234801561001057600080fd5b50600436106100b35760003560e01c80636f45f944116100715780636f45f944146101b05780639abc8320146101e0578063a22cb465146101fe578063e985e9c51461021a578063f242432a1461024a578063f552677414610266576100b3565b8062fdd58e146100b857806301ffc9a7146100e85780630e89341c146101185780632eb2c2d6146101485780634e1273f4146101645780636ecd230614610194575b600080fd5b6100d260048036038101906100cd91906116ff565b610284565b6040516100df919061174e565b60405180910390f35b61010260048036038101906100fd91906117c1565b61034d565b60405161010f9190611809565b60405180910390f35b610132600480360381019061012d9190611824565b61042f565b60405161013f91906118ea565b60405180910390f35b610162600480360381019061015d9190611b09565b6104c3565b005b61017e60048036038101906101799190611c9b565b610564565b60405161018b9190611dd1565b60405180910390f35b6101ae60048036038101906101a99190611e2c565b61067d565b005b6101ca60048036038101906101c59190611e2c565b6106ef565b6040516101d79190611809565b60405180910390f35b6101e8610718565b6040516101f591906118ea565b60405180910390f35b61021860048036038101906102139190611e85565b6107a6565b005b610234600480360381019061022f9190611ec5565b6107bc565b6040516102419190611809565b60405180910390f35b610264600480360381019061025f9190611f05565b610850565b005b61026e6108f1565b60405161027b919061174e565b60405180910390f35b60008073ffffffffffffffffffffffffffffffffffffffff168373ffffffffffffffffffffffffffffffffffffffff1614156102f5576040517f08c379a00000000000000000000000000000000000000000000000000000000081526004016102ec9061200e565b60405180910390fd5b60008083815260200190815260200160002060008473ffffffffffffffffffffffffffffffffffffffff1673ffffffffffffffffffffffffffffffffffffffff16815260200190815260200160002054905092915050565b60007fd9b67a26000000000000000000000000000000000000000000000000000000007bffffffffffffffffffffffffffffffffffffffffffffffffffffffff1916827bffffffffffffffffffffffffffffffffffffffffffffffffffffffff1916148061041857507f0e89341c000000000000000000000000000000000000000000000000000000007bffffffffffffffffffffffffffffffffffffffffffffffffffffffff1916827bffffffffffffffffffffffffffffffffffffffffffffffffffffffff1916145b806104285750610427826108f7565b5b9050919050565b60606002805461043e9061205d565b80601f016020809104026020016040519081016040528092919081815260200182805461046a9061205d565b80156104b75780601f1061048c576101008083540402835291602001916104b7565b820191906000526020600020905b81548152906001019060200180831161049a57829003601f168201915b50505050509050919050565b6104cb610961565b73ffffffffffffffffffffffffffffffffffffffff168573ffffffffffffffffffffffffffffffffffffffff16148061051157506105108561050b610961565b6107bc565b5b610550576040517f08c379a000000000000000000000000000000000000000000000000000000000815260040161054790612101565b60405180910390fd5b61055d8585858585610969565b5050505050565b606081518351146105aa576040517f08c379a00000000000000000000000000000000000000000000000000000000081526004016105a190612193565b60405180910390fd5b6000835167ffffffffffffffff8111156105c7576105c6611911565b5b6040519080825280602002602001820160405280156105f55781602001602082028036833780820191505090505b50905060005b84518110156106725761064285828151811061061a576106196121b3565b5b6020026020010151858381518110610635576106346121b3565b5b6020026020010151610284565b828281518110610655576106546121b3565b5b6020026020010181815250508061066b90612211565b90506105fb565b508091505092915050565b600061068c338360ff16610284565b11156106cd576040517f08c379a00000000000000000000000000000000000000000000000000000000081526004016106c4906122a6565b60405180910390fd5b6106ec338260ff16600160405180602001604052806000815250610c7d565b50565b6000806106ff338460ff16610284565b111561070e5760019050610713565b600090505b919050565b600480546107259061205d565b80601f01602080910402602001604051908101604052809291908181526020018280546107519061205d565b801561079e5780601f106107735761010080835404028352916020019161079e565b820191906000526020600020905b81548152906001019060200180831161078157829003601f168201915b505050505081565b6107b86107b1610961565b8383610e13565b5050565b6000600160008473ffffffffffffffffffffffffffffffffffffffff1673ffffffffffffffffffffffffffffffffffffffff16815260200190815260200160002060008373ffffffffffffffffffffffffffffffffffffffff1673ffffffffffffffffffffffffffffffffffffffff16815260200190815260200160002060009054906101000a900460ff16905092915050565b610858610961565b73ffffffffffffffffffffffffffffffffffffffff168573ffffffffffffffffffffffffffffffffffffffff16148061089e575061089d85610898610961565b6107bc565b5b6108dd576040517f08c379a00000000000000000000000000000000000000000000000000000000081526004016108d490612338565b60405180910390fd5b6108ea8585858585610f80565b5050505050565b60035481565b60007f01ffc9a7000000000000000000000000000000000000000000000000000000007bffffffffffffffffffffffffffffffffffffffffffffffffffffffff1916827bffffffffffffffffffffffffffffffffffffffffffffffffffffffff1916149050919050565b600033905090565b81518351146109ad576040517f08c379a00000000000000000000000000000000000000000000000000000000081526004016109a4906123ca565b60405180910390fd5b600073ffffffffffffffffffffffffffffffffffffffff168473ffffffffffffffffffffffffffffffffffffffff161415610a1d576040517f08c379a0000000000000000000000000000000000000000000000000000000008152600401610a149061245c565b60405180910390fd5b6000610a27610961565b9050610a37818787878787611202565b60005b8451811015610be8576000858281518110610a5857610a576121b3565b5b602002602001015190506000858381518110610a7757610a766121b3565b5b60200260200101519050600080600084815260200190815260200160002060008b73ffffffffffffffffffffffffffffffffffffffff1673ffffffffffffffffffffffffffffffffffffffff16815260200190815260200160002054905081811015610b18576040517f08c379a0000000000000000000000000000000000000000000000000000000008152600401610b0f906124ee565b60405180910390fd5b81810360008085815260200190815260200160002060008c73ffffffffffffffffffffffffffffffffffffffff1673ffffffffffffffffffffffffffffffffffffffff168152602001908152602001600020819055508160008085815260200190815260200160002060008b73ffffffffffffffffffffffffffffffffffffffff1673ffffffffffffffffffffffffffffffffffffffff1681526020019081526020016000206000828254610bcd919061250e565b9250508190555050505080610be190612211565b9050610a3a565b508473ffffffffffffffffffffffffffffffffffffffff168673ffffffffffffffffffffffffffffffffffffffff168273ffffffffffffffffffffffffffffffffffffffff167f4a39dc06d4c0dbc64b70af90fd698a233a518aa5d07e595d983b8c0526c8f7fb8787604051610c5f929190612564565b60405180910390a4610c7581878787878761120a565b505050505050565b600073ffffffffffffffffffffffffffffffffffffffff168473ffffffffffffffffffffffffffffffffffffffff161415610ced576040517f08c379a0000000000000000000000000000000000000000000000000000000008152600401610ce49061260d565b60405180910390fd5b6000610cf7610961565b9050610d1881600087610d09886113e2565b610d12886113e2565b87611202565b8260008086815260200190815260200160002060008773ffffffffffffffffffffffffffffffffffffffff1673ffffffffffffffffffffffffffffffffffffffff1681526020019081526020016000206000828254610d77919061250e565b925050819055508473ffffffffffffffffffffffffffffffffffffffff16600073ffffffffffffffffffffffffffffffffffffffff168273ffffffffffffffffffffffffffffffffffffffff167fc3d58168c5ae7397731d063d5bbf3d657854427343f4c083240f7aacaa2d0f628787604051610df592919061262d565b60405180910390a4610e0c8160008787878761145c565b5050505050565b8173ffffffffffffffffffffffffffffffffffffffff168373ffffffffffffffffffffffffffffffffffffffff161415610e82576040517f08c379a0000000000000000000000000000000000000000000000000000000008152600401610e79906126c8565b60405180910390fd5b80600160008573ffffffffffffffffffffffffffffffffffffffff1673ffffffffffffffffffffffffffffffffffffffff16815260200190815260200160002060008473ffffffffffffffffffffffffffffffffffffffff1673ffffffffffffffffffffffffffffffffffffffff16815260200190815260200160002060006101000a81548160ff0219169083151502179055508173ffffffffffffffffffffffffffffffffffffffff168373ffffffffffffffffffffffffffffffffffffffff167f17307eab39ab6107e8899845ad3d59bd9653f200f220920489ca2b5937696c3183604051610f739190611809565b60405180910390a3505050565b600073ffffffffffffffffffffffffffffffffffffffff168473ffffffffffffffffffffffffffffffffffffffff161415610ff0576040517f08c379a0000000000000000000000000000000000000000000000000000000008152600401610fe79061245c565b60405180910390fd5b6000610ffa610961565b905061101a81878761100b886113e2565b611014886113e2565b87611202565b600080600086815260200190815260200160002060008873ffffffffffffffffffffffffffffffffffffffff1673ffffffffffffffffffffffffffffffffffffffff168152602001908152602001600020549050838110156110b1576040517f08c379a00000000000000000000000000000000000000000000000000000000081526004016110a8906124ee565b60405180910390fd5b83810360008087815260200190815260200160002060008973ffffffffffffffffffffffffffffffffffffffff1673ffffffffffffffffffffffffffffffffffffffff168152602001908152602001600020819055508360008087815260200190815260200160002060008873ffffffffffffffffffffffffffffffffffffffff1673ffffffffffffffffffffffffffffffffffffffff1681526020019081526020016000206000828254611166919061250e565b925050819055508573ffffffffffffffffffffffffffffffffffffffff168773ffffffffffffffffffffffffffffffffffffffff168373ffffffffffffffffffffffffffffffffffffffff167fc3d58168c5ae7397731d063d5bbf3d657854427343f4c083240f7aacaa2d0f6288886040516111e392919061262d565b60405180910390a46111f982888888888861145c565b50505050505050565b505050505050565b6112298473ffffffffffffffffffffffffffffffffffffffff16611634565b156113da578373ffffffffffffffffffffffffffffffffffffffff1663bc197c8187878686866040518663ffffffff1660e01b815260040161126f95949392919061274c565b6020604051808303816000875af19250505080156112ab57506040513d601f19601f820116820180604052508101906112a891906127c9565b60015b611351576112b7612803565b806308c379a0141561131457506112cc612825565b806112d75750611316565b806040517f08c379a000000000000000000000000000000000000000000000000000000000815260040161130b91906118ea565b60405180910390fd5b505b6040517f08c379a00000000000000000000000000000000000000000000000000000000081526004016113489061292d565b60405180910390fd5b63bc197c8160e01b7bffffffffffffffffffffffffffffffffffffffffffffffffffffffff1916817bffffffffffffffffffffffffffffffffffffffffffffffffffffffff1916146113d8576040517f08c379a00000000000000000000000000000000000000000000000000000000081526004016113cf906129bf565b60405180910390fd5b505b505050505050565b60606000600167ffffffffffffffff81111561140157611400611911565b5b60405190808252806020026020018201604052801561142f5781602001602082028036833780820191505090505b5090508281600081518110611447576114466121b3565b5b60200260200101818152505080915050919050565b61147b8473ffffffffffffffffffffffffffffffffffffffff16611634565b1561162c578373ffffffffffffffffffffffffffffffffffffffff1663f23a6e6187878686866040518663ffffffff1660e01b81526004016114c19594939291906129df565b6020604051808303816000875af19250505080156114fd57506040513d601f19601f820116820180604052508101906114fa91906127c9565b60015b6115a357611509612803565b806308c379a01415611566575061151e612825565b806115295750611568565b806040517f08c379a000000000000000000000000000000000000000000000000000000000815260040161155d91906118ea565b60405180910390fd5b505b6040517f08c379a000000000000000000000000000000000000000000000000000000000815260040161159a9061292d565b60405180910390fd5b63f23a6e6160e01b7bffffffffffffffffffffffffffffffffffffffffffffffffffffffff1916817bffffffffffffffffffffffffffffffffffffffffffffffffffffffff19161461162a576040517f08c379a0000000000000000000000000000000000000000000000000000000008152600401611621906129bf565b60405180910390fd5b505b505050505050565b6000808273ffffffffffffffffffffffffffffffffffffffff163b119050919050565b6000604051905090565b600080fd5b600080fd5b600073ffffffffffffffffffffffffffffffffffffffff82169050919050565b60006116968261166b565b9050919050565b6116a68161168b565b81146116b157600080fd5b50565b6000813590506116c38161169d565b92915050565b6000819050919050565b6116dc816116c9565b81146116e757600080fd5b50565b6000813590506116f9816116d3565b92915050565b6000806040838503121561171657611715611661565b5b6000611724858286016116b4565b9250506020611735858286016116ea565b9150509250929050565b611748816116c9565b82525050565b6000602082019050611763600083018461173f565b92915050565b60007fffffffff0000000000000000000000000000000000000000000000000000000082169050919050565b61179e81611769565b81146117a957600080fd5b50565b6000813590506117bb81611795565b92915050565b6000602082840312156117d7576117d6611661565b5b60006117e5848285016117ac565b91505092915050565b60008115159050919050565b611803816117ee565b82525050565b600060208201905061181e60008301846117fa565b92915050565b60006020828403121561183a57611839611661565b5b6000611848848285016116ea565b91505092915050565b600081519050919050565b600082825260208201905092915050565b60005b8381101561188b578082015181840152602081019050611870565b8381111561189a576000848401525b50505050565b6000601f19601f8301169050919050565b60006118bc82611851565b6118c6818561185c565b93506118d681856020860161186d565b6118df816118a0565b840191505092915050565b6000602082019050818103600083015261190481846118b1565b905092915050565b600080fd5b7f4e487b7100000000000000000000000000000000000000000000000000000000600052604160045260246000fd5b611949826118a0565b810181811067ffffffffffffffff8211171561196857611967611911565b5b80604052505050565b600061197b611657565b90506119878282611940565b919050565b600067ffffffffffffffff8211156119a7576119a6611911565b5b602082029050602081019050919050565b600080fd5b60006119d06119cb8461198c565b611971565b905080838252602082019050602084028301858111156119f3576119f26119b8565b5b835b81811015611a1c5780611a0888826116ea565b8452602084019350506020810190506119f5565b5050509392505050565b600082601f830112611a3b57611a3a61190c565b5b8135611a4b8482602086016119bd565b91505092915050565b600080fd5b600067ffffffffffffffff821115611a7457611a73611911565b5b611a7d826118a0565b9050602081019050919050565b82818337600083830152505050565b6000611aac611aa784611a59565b611971565b905082815260208101848484011115611ac857611ac7611a54565b5b611ad3848285611a8a565b509392505050565b600082601f830112611af057611aef61190c565b5b8135611b00848260208601611a99565b91505092915050565b600080600080600060a08688031215611b2557611b24611661565b5b6000611b33888289016116b4565b9550506020611b44888289016116b4565b945050604086013567ffffffffffffffff811115611b6557611b64611666565b5b611b7188828901611a26565b935050606086013567ffffffffffffffff811115611b9257611b91611666565b5b611b9e88828901611a26565b925050608086013567ffffffffffffffff811115611bbf57611bbe611666565b5b611bcb88828901611adb565b9150509295509295909350565b600067ffffffffffffffff821115611bf357611bf2611911565b5b602082029050602081019050919050565b6000611c17611c1284611bd8565b611971565b90508083825260208201905060208402830185811115611c3a57611c396119b8565b5b835b81811015611c635780611c4f88826116b4565b845260208401935050602081019050611c3c565b5050509392505050565b600082601f830112611c8257611c8161190c565b5b8135611c92848260208601611c04565b91505092915050565b60008060408385031215611cb257611cb1611661565b5b600083013567ffffffffffffffff811115611cd057611ccf611666565b5b611cdc85828601611c6d565b925050602083013567ffffffffffffffff811115611cfd57611cfc611666565b5b611d0985828601611a26565b9150509250929050565b600081519050919050565b600082825260208201905092915050565b6000819050602082019050919050565b611d48816116c9565b82525050565b6000611d5a8383611d3f565b60208301905092915050565b6000602082019050919050565b6000611d7e82611d13565b611d888185611d1e565b9350611d9383611d2f565b8060005b83811015611dc4578151611dab8882611d4e565b9750611db683611d66565b925050600181019050611d97565b5085935050505092915050565b60006020820190508181036000830152611deb8184611d73565b905092915050565b600060ff82169050919050565b611e0981611df3565b8114611e1457600080fd5b50565b600081359050611e2681611e00565b92915050565b600060208284031215611e4257611e41611661565b5b6000611e5084828501611e17565b91505092915050565b611e62816117ee565b8114611e6d57600080fd5b50565b600081359050611e7f81611e59565b92915050565b60008060408385031215611e9c57611e9b611661565b5b6000611eaa858286016116b4565b9250506020611ebb85828601611e70565b9150509250929050565b60008060408385031215611edc57611edb611661565b5b6000611eea858286016116b4565b9250506020611efb858286016116b4565b9150509250929050565b600080600080600060a08688031215611f2157611f20611661565b5b6000611f2f888289016116b4565b9550506020611f40888289016116b4565b9450506040611f51888289016116ea565b9350506060611f62888289016116ea565b925050608086013567ffffffffffffffff811115611f8357611f82611666565b5b611f8f88828901611adb565b9150509295509295909350565b7f455243313135353a2062616c616e636520717565727920666f7220746865207a60008201527f65726f2061646472657373000000000000000000000000000000000000000000602082015250565b6000611ff8602b8361185c565b915061200382611f9c565b604082019050919050565b6000602082019050818103600083015261202781611feb565b9050919050565b7f4e487b7100000000000000000000000000000000000000000000000000000000600052602260045260246000fd5b6000600282049050600182168061207557607f821691505b602082108114156120895761208861202e565b5b50919050565b7f455243313135353a207472616e736665722063616c6c6572206973206e6f742060008201527f6f776e6572206e6f7220617070726f7665640000000000000000000000000000602082015250565b60006120eb60328361185c565b91506120f68261208f565b604082019050919050565b6000602082019050818103600083015261211a816120de565b9050919050565b7f455243313135353a206163636f756e747320616e6420696473206c656e67746860008201527f206d69736d617463680000000000000000000000000000000000000000000000602082015250565b600061217d60298361185c565b915061218882612121565b604082019050919050565b600060208201905081810360008301526121ac81612170565b9050919050565b7f4e487b7100000000000000000000000000000000000000000000000000000000600052603260045260246000fd5b7f4e487b7100000000000000000000000000000000000000000000000000000000600052601160045260246000fd5b600061221c826116c9565b91507fffffffffffffffffffffffffffffffffffffffffffffffffffffffffffffffff82141561224f5761224e6121e2565b5b600182019050919050565b7f416c7265616479206d696e746564000000000000000000000000000000000000600082015250565b6000612290600e8361185c565b915061229b8261225a565b602082019050919050565b600060208201905081810360008301526122bf81612283565b9050919050565b7f455243313135353a2063616c6c6572206973206e6f74206f776e6572206e6f7260008201527f20617070726f7665640000000000000000000000000000000000000000000000602082015250565b600061232260298361185c565b915061232d826122c6565b604082019050919050565b6000602082019050818103600083015261235181612315565b9050919050565b7f455243313135353a2069647320616e6420616d6f756e7473206c656e6774682060008201527f6d69736d61746368000000000000000000000000000000000000000000000000602082015250565b60006123b460288361185c565b91506123bf82612358565b604082019050919050565b600060208201905081810360008301526123e3816123a7565b9050919050565b7f455243313135353a207472616e7366657220746f20746865207a65726f20616460008201527f6472657373000000000000000000000000000000000000000000000000000000602082015250565b600061244660258361185c565b9150612451826123ea565b604082019050919050565b6000602082019050818103600083015261247581612439565b9050919050565b7f455243313135353a20696e73756666696369656e742062616c616e636520666f60008201527f72207472616e7366657200000000000000000000000000000000000000000000602082015250565b60006124d8602a8361185c565b91506124e38261247c565b604082019050919050565b60006020820190508181036000830152612507816124cb565b9050919050565b6000612519826116c9565b9150612524836116c9565b9250827fffffffffffffffffffffffffffffffffffffffffffffffffffffffffffffffff03821115612559576125586121e2565b5b828201905092915050565b6000604082019050818103600083015261257e8185611d73565b905081810360208301526125928184611d73565b90509392505050565b7f455243313135353a206d696e7420746f20746865207a65726f2061646472657360008201527f7300000000000000000000000000000000000000000000000000000000000000602082015250565b60006125f760218361185c565b91506126028261259b565b604082019050919050565b60006020820190508181036000830152612626816125ea565b9050919050565b6000604082019050612642600083018561173f565b61264f602083018461173f565b9392505050565b7f455243313135353a2073657474696e6720617070726f76616c2073746174757360008201527f20666f722073656c660000000000000000000000000000000000000000000000602082015250565b60006126b260298361185c565b91506126bd82612656565b604082019050919050565b600060208201905081810360008301526126e1816126a5565b9050919050565b6126f18161168b565b82525050565b600081519050919050565b600082825260208201905092915050565b600061271e826126f7565b6127288185612702565b935061273881856020860161186d565b612741816118a0565b840191505092915050565b600060a08201905061276160008301886126e8565b61276e60208301876126e8565b81810360408301526127808186611d73565b905081810360608301526127948185611d73565b905081810360808301526127a88184612713565b90509695505050505050565b6000815190506127c381611795565b92915050565b6000602082840312156127df576127de611661565b5b60006127ed848285016127b4565b91505092915050565b60008160e01c9050919050565b600060033d11156128225760046000803e61281f6000516127f6565b90505b90565b600060443d1015612835576128b8565b61283d611657565b60043d036004823e80513d602482011167ffffffffffffffff821117156128655750506128b8565b808201805167ffffffffffffffff81111561288357505050506128b8565b80602083010160043d0385018111156128a05750505050506128b8565b6128af82602001850186611940565b82955050505050505b90565b7f455243313135353a207472616e7366657220746f206e6f6e204552433131353560008201527f526563656976657220696d706c656d656e746572000000000000000000000000602082015250565b600061291760348361185c565b9150612922826128bb565b604082019050919050565b600060208201905081810360008301526129468161290a565b9050919050565b7f455243313135353a204552433131353552656365697665722072656a6563746560008201527f6420746f6b656e73000000000000000000000000000000000000000000000000602082015250565b60006129a960288361185c565b91506129b48261294d565b604082019050919050565b600060208201905081810360008301526129d88161299c565b9050919050565b600060a0820190506129f460008301886126e8565b612a0160208301876126e8565b612a0e604083018661173f565b612a1b606083018561173f565b8181036080830152612a2d8184612713565b9050969550505050505056fea264697066735822122085d3adbd07fc4fdfc6950a9ef058abd75ad21e21ece1a12e4ed5d516cc06738664736f6c634300080c0033",
  "linkReferences": {},
  "deployedLinkReferences": {}
}